{
  "address": "0xa0748B381dd01F08426Db013EEb5Dda7b2748246",
  "abi": [
    {
      "inputs": [],
      "stateMutability": "nonpayable",
      "type": "constructor"
    },
    {
      "anonymous": false,
      "inputs": [
        {
          "indexed": true,
          "internalType": "address",
          "name": "owner",
          "type": "address"
        },
        {
          "indexed": true,
          "internalType": "address",
          "name": "approved",
          "type": "address"
        },
        {
          "indexed": true,
          "internalType": "uint256",
          "name": "tokenId",
          "type": "uint256"
        }
      ],
      "name": "Approval",
      "type": "event"
    },
    {
      "anonymous": false,
      "inputs": [
        {
          "indexed": true,
          "internalType": "address",
          "name": "owner",
          "type": "address"
        },
        {
          "indexed": true,
          "internalType": "address",
          "name": "operator",
          "type": "address"
        },
        {
          "indexed": false,
          "internalType": "bool",
          "name": "approved",
          "type": "bool"
        }
      ],
      "name": "ApprovalForAll",
      "type": "event"
    },
    {
      "anonymous": false,
      "inputs": [
        {
          "indexed": true,
          "internalType": "address",
          "name": "from",
          "type": "address"
        },
        {
          "indexed": true,
          "internalType": "address",
          "name": "to",
          "type": "address"
        },
        {
          "indexed": true,
          "internalType": "uint256",
          "name": "tokenId",
          "type": "uint256"
        }
      ],
      "name": "Transfer",
      "type": "event"
    },
    {
      "inputs": [
        {
          "internalType": "address",
          "name": "to",
          "type": "address"
        },
        {
          "internalType": "uint256",
          "name": "tokenId",
          "type": "uint256"
        }
      ],
      "name": "approve",
      "outputs": [],
      "stateMutability": "nonpayable",
      "type": "function"
    },
    {
      "inputs": [
        {
          "internalType": "address",
          "name": "owner",
          "type": "address"
        }
      ],
      "name": "balanceOf",
      "outputs": [
        {
          "internalType": "uint256",
          "name": "",
          "type": "uint256"
        }
      ],
      "stateMutability": "view",
      "type": "function"
    },
    {
      "inputs": [
        {
          "internalType": "string",
          "name": "_svg",
          "type": "string"
        }
      ],
      "name": "create",
      "outputs": [],
      "stateMutability": "nonpayable",
      "type": "function"
    },
    {
      "inputs": [
        {
          "internalType": "string",
          "name": "imageURI",
          "type": "string"
        }
      ],
      "name": "formatTokenURI",
      "outputs": [
        {
          "internalType": "string",
          "name": "",
          "type": "string"
        }
      ],
      "stateMutability": "pure",
      "type": "function"
    },
    {
      "inputs": [
        {
          "internalType": "uint256",
          "name": "tokenId",
          "type": "uint256"
        }
      ],
      "name": "getApproved",
      "outputs": [
        {
          "internalType": "address",
          "name": "",
          "type": "address"
        }
      ],
      "stateMutability": "view",
      "type": "function"
    },
    {
      "inputs": [
        {
          "internalType": "address",
          "name": "owner",
          "type": "address"
        },
        {
          "internalType": "address",
          "name": "operator",
          "type": "address"
        }
      ],
      "name": "isApprovedForAll",
      "outputs": [
        {
          "internalType": "bool",
          "name": "",
          "type": "bool"
        }
      ],
      "stateMutability": "view",
      "type": "function"
    },
    {
      "inputs": [],
      "name": "name",
      "outputs": [
        {
          "internalType": "string",
          "name": "",
          "type": "string"
        }
      ],
      "stateMutability": "view",
      "type": "function"
    },
    {
      "inputs": [
        {
          "internalType": "uint256",
          "name": "tokenId",
          "type": "uint256"
        }
      ],
      "name": "ownerOf",
      "outputs": [
        {
          "internalType": "address",
          "name": "",
          "type": "address"
        }
      ],
      "stateMutability": "view",
      "type": "function"
    },
    {
      "inputs": [
        {
          "internalType": "address",
          "name": "from",
          "type": "address"
        },
        {
          "internalType": "address",
          "name": "to",
          "type": "address"
        },
        {
          "internalType": "uint256",
          "name": "tokenId",
          "type": "uint256"
        }
      ],
      "name": "safeTransferFrom",
      "outputs": [],
      "stateMutability": "nonpayable",
      "type": "function"
    },
    {
      "inputs": [
        {
          "internalType": "address",
          "name": "from",
          "type": "address"
        },
        {
          "internalType": "address",
          "name": "to",
          "type": "address"
        },
        {
          "internalType": "uint256",
          "name": "tokenId",
          "type": "uint256"
        },
        {
          "internalType": "bytes",
          "name": "_data",
          "type": "bytes"
        }
      ],
      "name": "safeTransferFrom",
      "outputs": [],
      "stateMutability": "nonpayable",
      "type": "function"
    },
    {
      "inputs": [
        {
          "internalType": "address",
          "name": "operator",
          "type": "address"
        },
        {
          "internalType": "bool",
          "name": "approved",
          "type": "bool"
        }
      ],
      "name": "setApprovalForAll",
      "outputs": [],
      "stateMutability": "nonpayable",
      "type": "function"
    },
    {
      "inputs": [
        {
          "internalType": "bytes4",
          "name": "interfaceId",
          "type": "bytes4"
        }
      ],
      "name": "supportsInterface",
      "outputs": [
        {
          "internalType": "bool",
          "name": "",
          "type": "bool"
        }
      ],
      "stateMutability": "view",
      "type": "function"
    },
    {
      "inputs": [
        {
          "internalType": "string",
          "name": "_svg",
          "type": "string"
        }
      ],
      "name": "svgToImageURI",
      "outputs": [
        {
          "internalType": "string",
          "name": "",
          "type": "string"
        }
      ],
      "stateMutability": "pure",
      "type": "function"
    },
    {
      "inputs": [],
      "name": "symbol",
      "outputs": [
        {
          "internalType": "string",
          "name": "",
          "type": "string"
        }
      ],
      "stateMutability": "view",
      "type": "function"
    },
    {
      "inputs": [],
      "name": "tokenCounter",
      "outputs": [
        {
          "internalType": "uint256",
          "name": "",
          "type": "uint256"
        }
      ],
      "stateMutability": "view",
      "type": "function"
    },
    {
      "inputs": [
        {
          "internalType": "uint256",
          "name": "tokenId",
          "type": "uint256"
        }
      ],
      "name": "tokenURI",
      "outputs": [
        {
          "internalType": "string",
          "name": "",
          "type": "string"
        }
      ],
      "stateMutability": "view",
      "type": "function"
    },
    {
      "inputs": [
        {
          "internalType": "address",
          "name": "from",
          "type": "address"
        },
        {
          "internalType": "address",
          "name": "to",
          "type": "address"
        },
        {
          "internalType": "uint256",
          "name": "tokenId",
          "type": "uint256"
        }
      ],
      "name": "transferFrom",
      "outputs": [],
      "stateMutability": "nonpayable",
      "type": "function"
    }
  ],
  "transactionHash": "0x2a022938c33c8965c2e2903c1c5bb5524ae9eec0a021ef64a17e11973eb7de28",
  "args": [],
  "numDeployments": 1,
  "solcInputHash": "3cabd2caa38f9fe8cdf5c26f176d102c",
  "bytecode": "0x60806040523480156200001157600080fd5b506040518060400160405280600781526020017f535647204e4654000000000000000000000000000000000000000000000000008152506040518060400160405280600681526020017f7376674e46540000000000000000000000000000000000000000000000000000815250816000908051906020019062000096929190620000c0565b508060019080519060200190620000af929190620000c0565b5050506000600781905550620001d5565b828054620000ce9062000170565b90600052602060002090601f016020900481019282620000f257600085556200013e565b82601f106200010d57805160ff19168380011785556200013e565b828001600101855582156200013e579182015b828111156200013d57825182559160200191906001019062000120565b5b5090506200014d919062000151565b5090565b5b808211156200016c57600081600090555060010162000152565b5090565b600060028204905060018216806200018957607f821691505b60208210811415620001a0576200019f620001a6565b5b50919050565b7f4e487b7100000000000000000000000000000000000000000000000000000000600052602260045260246000fd5b61309d80620001e56000396000f3fe608060405234801561001057600080fd5b506004361061010b5760003560e01c806370a08231116100a2578063b6a46b3b11610071578063b6a46b3b146102dc578063b88d4fde146102f8578063c87b56dd14610314578063d082e38114610344578063e985e9c5146103625761010b565b806370a082311461024257806371aee1931461027257806395d89b41146102a2578063a22cb465146102c05761010b565b806323b872dd116100de57806323b872dd146101aa57806330d871c6146101c657806342842e0e146101f65780636352211e146102125761010b565b806301ffc9a71461011057806306fdde0314610140578063081812fc1461015e578063095ea7b31461018e575b600080fd5b61012a60048036038101906101259190611f8b565b610392565b604051610137919061295b565b60405180910390f35b610148610474565b6040516101559190612976565b60405180910390f35b6101786004803603810190610173919061201e565b610506565b60405161018591906128f4565b60405180910390f35b6101a860048036038101906101a39190611f4f565b61058b565b005b6101c460048036038101906101bf9190611e49565b6106a3565b005b6101e060048036038101906101db9190611fdd565b610703565b6040516101ed9190612976565b60405180910390f35b610210600480360381019061020b9190611e49565b61079c565b005b61022c6004803603810190610227919061201e565b6107bc565b60405161023991906128f4565b60405180910390f35b61025c60048036038101906102579190611de4565b61086e565b6040516102699190612b98565b60405180910390f35b61028c60048036038101906102879190611fdd565b610926565b6040516102999190612976565b60405180910390f35b6102aa6109b3565b6040516102b79190612976565b60405180910390f35b6102da60048036038101906102d59190611f13565b610a45565b005b6102f660048036038101906102f19190611fdd565b610a5b565b005b610312600480360381019061030d9190611e98565b610aac565b005b61032e6004803603810190610329919061201e565b610b0e565b60405161033b9190612976565b60405180910390f35b61034c610c60565b6040516103599190612b98565b60405180910390f35b61037c60048036038101906103779190611e0d565b610c66565b604051610389919061295b565b60405180910390f35b60007f80ac58cd000000000000000000000000000000000000000000000000000000007bffffffffffffffffffffffffffffffffffffffffffffffffffffffff1916827bffffffffffffffffffffffffffffffffffffffffffffffffffffffff1916148061045d57507f5b5e139f000000000000000000000000000000000000000000000000000000007bffffffffffffffffffffffffffffffffffffffffffffffffffffffff1916827bffffffffffffffffffffffffffffffffffffffffffffffffffffffff1916145b8061046d575061046c82610cfa565b5b9050919050565b60606000805461048390612e52565b80601f01602080910402602001604051908101604052809291908181526020018280546104af90612e52565b80156104fc5780601f106104d1576101008083540402835291602001916104fc565b820191906000526020600020905b8154815290600101906020018083116104df57829003601f168201915b5050505050905090565b600061051182610d64565b610550576040517f08c379a000000000000000000000000000000000000000000000000000000000815260040161054790612af8565b60405180910390fd5b6004600083815260200190815260200160002060009054906101000a900473ffffffffffffffffffffffffffffffffffffffff169050919050565b6000610596826107bc565b90508073ffffffffffffffffffffffffffffffffffffffff168373ffffffffffffffffffffffffffffffffffffffff161415610607576040517f08c379a00000000000000000000000000000000000000000000000000000000081526004016105fe90612b58565b60405180910390fd5b8073ffffffffffffffffffffffffffffffffffffffff16610626610dd0565b73ffffffffffffffffffffffffffffffffffffffff16148061065557506106548161064f610dd0565b610c66565b5b610694576040517f08c379a000000000000000000000000000000000000000000000000000000000815260040161068b90612a38565b60405180910390fd5b61069e8383610dd8565b505050565b6106b46106ae610dd0565b82610e91565b6106f3576040517f08c379a00000000000000000000000000000000000000000000000000000000081526004016106ea90612b78565b60405180910390fd5b6106fe838383610f6f565b505050565b606060006040518060400160405280601a81526020017f646174613a696d6167652f7376672b786d6c3b6261736536342c0000000000008152509050600061076984604051602001610755919061286b565b6040516020818303038152906040526111cb565b905060008282604051602001610780929190612882565b6040516020818303038152906040529050809350505050919050565b6107b783838360405180602001604052806000815250610aac565b505050565b6000806002600084815260200190815260200160002060009054906101000a900473ffffffffffffffffffffffffffffffffffffffff169050600073ffffffffffffffffffffffffffffffffffffffff168173ffffffffffffffffffffffffffffffffffffffff161415610865576040517f08c379a000000000000000000000000000000000000000000000000000000000815260040161085c90612a78565b60405180910390fd5b80915050919050565b60008073ffffffffffffffffffffffffffffffffffffffff168273ffffffffffffffffffffffffffffffffffffffff1614156108df576040517f08c379a00000000000000000000000000000000000000000000000000000000081526004016108d690612a58565b60405180910390fd5b600360008373ffffffffffffffffffffffffffffffffffffffff1673ffffffffffffffffffffffffffffffffffffffff168152602001908152602001600020549050919050565b606060006040518060400160405280601d81526020017f646174613a6170706c69636174696f6e2f6a736f6e3b6261736536342c00000081525090508061098b8460405160200161097791906128a6565b6040516020818303038152906040526111cb565b60405160200161099c929190612882565b604051602081830303815290604052915050919050565b6060600180546109c290612e52565b80601f01602080910402602001604051908101604052809291908181526020018280546109ee90612e52565b8015610a3b5780601f10610a1057610100808354040283529160200191610a3b565b820191906000526020600020905b815481529060010190602001808311610a1e57829003601f168201915b5050505050905090565b610a57610a50610dd0565b838361136a565b5050565b610a67336007546114d7565b6000610a7282610703565b90506000610a7f82610926565b9050610a8d600754826114f5565b600160076000828254610aa09190612c87565b92505081905550505050565b610abd610ab7610dd0565b83610e91565b610afc576040517f08c379a0000000000000000000000000000000000000000000000000000000008152600401610af390612b78565b60405180910390fd5b610b0884848484611569565b50505050565b6060610b1982610d64565b610b58576040517f08c379a0000000000000000000000000000000000000000000000000000000008152600401610b4f90612ad8565b60405180910390fd5b6000600660008481526020019081526020016000208054610b7890612e52565b80601f0160208091040260200160405190810160405280929190818152602001828054610ba490612e52565b8015610bf15780601f10610bc657610100808354040283529160200191610bf1565b820191906000526020600020905b815481529060010190602001808311610bd457829003601f168201915b505050505090506000610c026115c5565b9050600081511415610c18578192505050610c5b565b600082511115610c4d578082604051602001610c35929190612882565b60405160208183030381529060405292505050610c5b565b610c56846115dc565b925050505b919050565b60075481565b6000600560008473ffffffffffffffffffffffffffffffffffffffff1673ffffffffffffffffffffffffffffffffffffffff16815260200190815260200160002060008373ffffffffffffffffffffffffffffffffffffffff1673ffffffffffffffffffffffffffffffffffffffff16815260200190815260200160002060009054906101000a900460ff16905092915050565b60007f01ffc9a7000000000000000000000000000000000000000000000000000000007bffffffffffffffffffffffffffffffffffffffffffffffffffffffff1916827bffffffffffffffffffffffffffffffffffffffffffffffffffffffff1916149050919050565b60008073ffffffffffffffffffffffffffffffffffffffff166002600084815260200190815260200160002060009054906101000a900473ffffffffffffffffffffffffffffffffffffffff1673ffffffffffffffffffffffffffffffffffffffff1614159050919050565b600033905090565b816004600083815260200190815260200160002060006101000a81548173ffffffffffffffffffffffffffffffffffffffff021916908373ffffffffffffffffffffffffffffffffffffffff160217905550808273ffffffffffffffffffffffffffffffffffffffff16610e4b836107bc565b73ffffffffffffffffffffffffffffffffffffffff167f8c5be1e5ebec7d5bd14f71427d1e84f3dd0314c0f7b2291e5b200ac8c7c3b92560405160405180910390a45050565b6000610e9c82610d64565b610edb576040517f08c379a0000000000000000000000000000000000000000000000000000000008152600401610ed290612a18565b60405180910390fd5b6000610ee6836107bc565b90508073ffffffffffffffffffffffffffffffffffffffff168473ffffffffffffffffffffffffffffffffffffffff161480610f5557508373ffffffffffffffffffffffffffffffffffffffff16610f3d84610506565b73ffffffffffffffffffffffffffffffffffffffff16145b80610f665750610f658185610c66565b5b91505092915050565b8273ffffffffffffffffffffffffffffffffffffffff16610f8f826107bc565b73ffffffffffffffffffffffffffffffffffffffff1614610fe5576040517f08c379a0000000000000000000000000000000000000000000000000000000008152600401610fdc90612b18565b60405180910390fd5b600073ffffffffffffffffffffffffffffffffffffffff168273ffffffffffffffffffffffffffffffffffffffff161415611055576040517f08c379a000000000000000000000000000000000000000000000000000000000815260040161104c906129d8565b60405180910390fd5b611060838383611683565b61106b600082610dd8565b6001600360008573ffffffffffffffffffffffffffffffffffffffff1673ffffffffffffffffffffffffffffffffffffffff16815260200190815260200160002060008282546110bb9190612d68565b925050819055506001600360008473ffffffffffffffffffffffffffffffffffffffff1673ffffffffffffffffffffffffffffffffffffffff16815260200190815260200160002060008282546111129190612c87565b92505081905550816002600083815260200190815260200160002060006101000a81548173ffffffffffffffffffffffffffffffffffffffff021916908373ffffffffffffffffffffffffffffffffffffffff160217905550808273ffffffffffffffffffffffffffffffffffffffff168473ffffffffffffffffffffffffffffffffffffffff167fddf252ad1be2c89b69c2b068fc378daa952ba7f163c4a11628f55a4df523b3ef60405160405180910390a4505050565b60606000825114156111ee57604051806020016040528060008152509050611365565b6000604051806060016040528060408152602001613028604091399050600060036002855161121d9190612c87565b6112279190612cdd565b60046112339190612d0e565b905060006020826112449190612c87565b67ffffffffffffffff811115611283577f4e487b7100000000000000000000000000000000000000000000000000000000600052604160045260246000fd5b6040519080825280601f01601f1916602001820160405280156112b55781602001600182028036833780820191505090505b509050818152600183018586518101602084015b81831015611324576003830192508251603f8160121c168501518253600182019150603f81600c1c168501518253600182019150603f8160061c168501518253600182019150603f81168501518253600182019150506112c9565b60038951066001811461133e576002811461134e57611359565b613d3d60f01b6002830352611359565b603d60f81b60018303525b50505050508093505050505b919050565b8173ffffffffffffffffffffffffffffffffffffffff168373ffffffffffffffffffffffffffffffffffffffff1614156113d9576040517f08c379a00000000000000000000000000000000000000000000000000000000081526004016113d0906129f8565b60405180910390fd5b80600560008573ffffffffffffffffffffffffffffffffffffffff1673ffffffffffffffffffffffffffffffffffffffff16815260200190815260200160002060008473ffffffffffffffffffffffffffffffffffffffff1673ffffffffffffffffffffffffffffffffffffffff16815260200190815260200160002060006101000a81548160ff0219169083151502179055508173ffffffffffffffffffffffffffffffffffffffff168373ffffffffffffffffffffffffffffffffffffffff167f17307eab39ab6107e8899845ad3d59bd9653f200f220920489ca2b5937696c31836040516114ca919061295b565b60405180910390a3505050565b6114f1828260405180602001604052806000815250611688565b5050565b6114fe82610d64565b61153d576040517f08c379a000000000000000000000000000000000000000000000000000000000815260040161153490612a98565b60405180910390fd5b80600660008481526020019081526020016000209080519060200190611564929190611c08565b505050565b611574848484610f6f565b611580848484846116e3565b6115bf576040517f08c379a00000000000000000000000000000000000000000000000000000000081526004016115b690612998565b60405180910390fd5b50505050565b606060405180602001604052806000815250905090565b60606115e782610d64565b611626576040517f08c379a000000000000000000000000000000000000000000000000000000000815260040161161d90612b38565b60405180910390fd5b60006116306115c5565b90506000815111611650576040518060200160405280600081525061167b565b8061165a8461187a565b60405160200161166b929190612882565b6040516020818303038152906040525b915050919050565b505050565b6116928383611a27565b61169f60008484846116e3565b6116de576040517f08c379a00000000000000000000000000000000000000000000000000000000081526004016116d590612998565b60405180910390fd5b505050565b60006117048473ffffffffffffffffffffffffffffffffffffffff16611bf5565b1561186d578373ffffffffffffffffffffffffffffffffffffffff1663150b7a0261172d610dd0565b8786866040518563ffffffff1660e01b815260040161174f949392919061290f565b602060405180830381600087803b15801561176957600080fd5b505af192505050801561179a57506040513d601f19601f820116820180604052508101906117979190611fb4565b60015b61181d573d80600081146117ca576040519150601f19603f3d011682016040523d82523d6000602084013e6117cf565b606091505b50600081511415611815576040517f08c379a000000000000000000000000000000000000000000000000000000000815260040161180c90612998565b60405180910390fd5b805181602001fd5b63150b7a0260e01b7bffffffffffffffffffffffffffffffffffffffffffffffffffffffff1916817bffffffffffffffffffffffffffffffffffffffffffffffffffffffff191614915050611872565b600190505b949350505050565b606060008214156118c2576040518060400160405280600181526020017f30000000000000000000000000000000000000000000000000000000000000008152509050611a22565b600082905060005b600082146118f45780806118dd90612e84565b915050600a826118ed9190612cdd565b91506118ca565b60008167ffffffffffffffff811115611936577f4e487b7100000000000000000000000000000000000000000000000000000000600052604160045260246000fd5b6040519080825280601f01601f1916602001820160405280156119685781602001600182028036833780820191505090505b5090505b60008514611a1b576001826119819190612d68565b9150600a856119909190612ecd565b603061199c9190612c87565b60f81b8183815181106119d8577f4e487b7100000000000000000000000000000000000000000000000000000000600052603260045260246000fd5b60200101907effffffffffffffffffffffffffffffffffffffffffffffffffffffffffffff1916908160001a905350600a85611a149190612cdd565b945061196c565b8093505050505b919050565b600073ffffffffffffffffffffffffffffffffffffffff168273ffffffffffffffffffffffffffffffffffffffff161415611a97576040517f08c379a0000000000000000000000000000000000000000000000000000000008152600401611a8e90612ab8565b60405180910390fd5b611aa081610d64565b15611ae0576040517f08c379a0000000000000000000000000000000000000000000000000000000008152600401611ad7906129b8565b60405180910390fd5b611aec60008383611683565b6001600360008473ffffffffffffffffffffffffffffffffffffffff1673ffffffffffffffffffffffffffffffffffffffff1681526020019081526020016000206000828254611b3c9190612c87565b92505081905550816002600083815260200190815260200160002060006101000a81548173ffffffffffffffffffffffffffffffffffffffff021916908373ffffffffffffffffffffffffffffffffffffffff160217905550808273ffffffffffffffffffffffffffffffffffffffff16600073ffffffffffffffffffffffffffffffffffffffff167fddf252ad1be2c89b69c2b068fc378daa952ba7f163c4a11628f55a4df523b3ef60405160405180910390a45050565b600080823b905060008111915050919050565b828054611c1490612e52565b90600052602060002090601f016020900481019282611c365760008555611c7d565b82601f10611c4f57805160ff1916838001178555611c7d565b82800160010185558215611c7d579182015b82811115611c7c578251825591602001919060010190611c61565b5b509050611c8a9190611c8e565b5090565b5b80821115611ca7576000816000905550600101611c8f565b5090565b6000611cbe611cb984612be4565b612bb3565b905082815260208101848484011115611cd657600080fd5b611ce1848285612e10565b509392505050565b6000611cfc611cf784612c14565b612bb3565b905082815260208101848484011115611d1457600080fd5b611d1f848285612e10565b509392505050565b600081359050611d3681612fcb565b92915050565b600081359050611d4b81612fe2565b92915050565b600081359050611d6081612ff9565b92915050565b600081519050611d7581612ff9565b92915050565b600082601f830112611d8c57600080fd5b8135611d9c848260208601611cab565b91505092915050565b600082601f830112611db657600080fd5b8135611dc6848260208601611ce9565b91505092915050565b600081359050611dde81613010565b92915050565b600060208284031215611df657600080fd5b6000611e0484828501611d27565b91505092915050565b60008060408385031215611e2057600080fd5b6000611e2e85828601611d27565b9250506020611e3f85828601611d27565b9150509250929050565b600080600060608486031215611e5e57600080fd5b6000611e6c86828701611d27565b9350506020611e7d86828701611d27565b9250506040611e8e86828701611dcf565b9150509250925092565b60008060008060808587031215611eae57600080fd5b6000611ebc87828801611d27565b9450506020611ecd87828801611d27565b9350506040611ede87828801611dcf565b925050606085013567ffffffffffffffff811115611efb57600080fd5b611f0787828801611d7b565b91505092959194509250565b60008060408385031215611f2657600080fd5b6000611f3485828601611d27565b9250506020611f4585828601611d3c565b9150509250929050565b60008060408385031215611f6257600080fd5b6000611f7085828601611d27565b9250506020611f8185828601611dcf565b9150509250929050565b600060208284031215611f9d57600080fd5b6000611fab84828501611d51565b91505092915050565b600060208284031215611fc657600080fd5b6000611fd484828501611d66565b91505092915050565b600060208284031215611fef57600080fd5b600082013567ffffffffffffffff81111561200957600080fd5b61201584828501611da5565b91505092915050565b60006020828403121561203057600080fd5b600061203e84828501611dcf565b91505092915050565b61205081612d9c565b82525050565b61205f81612dae565b82525050565b600061207082612c44565b61207a8185612c5a565b935061208a818560208601612e1f565b61209381612fba565b840191505092915050565b60006120a982612c4f565b6120b38185612c6b565b93506120c3818560208601612e1f565b6120cc81612fba565b840191505092915050565b60006120e282612c4f565b6120ec8185612c7c565b93506120fc818560208601612e1f565b80840191505092915050565b6000612115603283612c6b565b91507f4552433732313a207472616e7366657220746f206e6f6e20455243373231526560008301527f63656976657220696d706c656d656e74657200000000000000000000000000006020830152604082019050919050565b600061217b601c83612c6b565b91507f4552433732313a20746f6b656e20616c7265616479206d696e746564000000006000830152602082019050919050565b60006121bb602483612c6b565b91507f4552433732313a207472616e7366657220746f20746865207a65726f2061646460008301527f72657373000000000000000000000000000000000000000000000000000000006020830152604082019050919050565b6000612221601983612c6b565b91507f4552433732313a20617070726f766520746f2063616c6c6572000000000000006000830152602082019050919050565b6000612261601283612c7c565b91507f7b226e616d65223a22535647204e4654222c00000000000000000000000000006000830152601282019050919050565b60006122a1602c83612c6b565b91507f4552433732313a206f70657261746f7220717565727920666f72206e6f6e657860008301527f697374656e7420746f6b656e00000000000000000000000000000000000000006020830152604082019050919050565b6000612307603883612c6b565b91507f4552433732313a20617070726f76652063616c6c6572206973206e6f74206f7760008301527f6e6572206e6f7220617070726f76656420666f7220616c6c00000000000000006020830152604082019050919050565b600061236d602a83612c6b565b91507f4552433732313a2062616c616e636520717565727920666f7220746865207a6560008301527f726f2061646472657373000000000000000000000000000000000000000000006020830152604082019050919050565b60006123d3602983612c6b565b91507f4552433732313a206f776e657220717565727920666f72206e6f6e657869737460008301527f656e7420746f6b656e00000000000000000000000000000000000000000000006020830152604082019050919050565b6000612439602e83612c6b565b91507f45524337323155524953746f726167653a2055524920736574206f66206e6f6e60008301527f6578697374656e7420746f6b656e0000000000000000000000000000000000006020830152604082019050919050565b600061249f602683612c7c565b91507f226465736372697074696f6e223a2022416e204e4654206261736564206f6e2060008301527f53564721222c00000000000000000000000000000000000000000000000000006020830152602682019050919050565b6000612505600283612c7c565b91507f227d0000000000000000000000000000000000000000000000000000000000006000830152600282019050919050565b6000612545602083612c6b565b91507f4552433732313a206d696e7420746f20746865207a65726f20616464726573736000830152602082019050919050565b6000612585603183612c6b565b91507f45524337323155524953746f726167653a2055524920717565727920666f722060008301527f6e6f6e6578697374656e7420746f6b656e0000000000000000000000000000006020830152604082019050919050565b60006125eb602c83612c6b565b91507f4552433732313a20617070726f76656420717565727920666f72206e6f6e657860008301527f697374656e7420746f6b656e00000000000000000000000000000000000000006020830152604082019050919050565b6000612651602983612c6b565b91507f4552433732313a207472616e73666572206f6620746f6b656e2074686174206960008301527f73206e6f74206f776e00000000000000000000000000000000000000000000006020830152604082019050919050565b60006126b7602f83612c6b565b91507f4552433732314d657461646174613a2055524920717565727920666f72206e6f60008301527f6e6578697374656e7420746f6b656e00000000000000000000000000000000006020830152604082019050919050565b600061271d602183612c6b565b91507f4552433732313a20617070726f76616c20746f2063757272656e74206f776e6560008301527f72000000000000000000000000000000000000000000000000000000000000006020830152604082019050919050565b6000612783603183612c6b565b91507f4552433732313a207472616e736665722063616c6c6572206973206e6f74206f60008301527f776e6572206e6f7220617070726f7665640000000000000000000000000000006020830152604082019050919050565b60006127e9600a83612c7c565b91507f22696d616765223a2022000000000000000000000000000000000000000000006000830152600a82019050919050565b6000612829601183612c7c565b91507f2261747472696275746573223a2022222c0000000000000000000000000000006000830152601182019050919050565b61286581612e06565b82525050565b600061287782846120d7565b915081905092915050565b600061288e82856120d7565b915061289a82846120d7565b91508190509392505050565b60006128b182612254565b91506128bc82612492565b91506128c78261281c565b91506128d2826127dc565b91506128de82846120d7565b91506128e9826124f8565b915081905092915050565b60006020820190506129096000830184612047565b92915050565b60006080820190506129246000830187612047565b6129316020830186612047565b61293e604083018561285c565b81810360608301526129508184612065565b905095945050505050565b60006020820190506129706000830184612056565b92915050565b60006020820190508181036000830152612990818461209e565b905092915050565b600060208201905081810360008301526129b181612108565b9050919050565b600060208201905081810360008301526129d18161216e565b9050919050565b600060208201905081810360008301526129f1816121ae565b9050919050565b60006020820190508181036000830152612a1181612214565b9050919050565b60006020820190508181036000830152612a3181612294565b9050919050565b60006020820190508181036000830152612a51816122fa565b9050919050565b60006020820190508181036000830152612a7181612360565b9050919050565b60006020820190508181036000830152612a91816123c6565b9050919050565b60006020820190508181036000830152612ab18161242c565b9050919050565b60006020820190508181036000830152612ad181612538565b9050919050565b60006020820190508181036000830152612af181612578565b9050919050565b60006020820190508181036000830152612b11816125de565b9050919050565b60006020820190508181036000830152612b3181612644565b9050919050565b60006020820190508181036000830152612b51816126aa565b9050919050565b60006020820190508181036000830152612b7181612710565b9050919050565b60006020820190508181036000830152612b9181612776565b9050919050565b6000602082019050612bad600083018461285c565b92915050565b6000604051905081810181811067ffffffffffffffff82111715612bda57612bd9612f8b565b5b8060405250919050565b600067ffffffffffffffff821115612bff57612bfe612f8b565b5b601f19601f8301169050602081019050919050565b600067ffffffffffffffff821115612c2f57612c2e612f8b565b5b601f19601f8301169050602081019050919050565b600081519050919050565b600081519050919050565b600082825260208201905092915050565b600082825260208201905092915050565b600081905092915050565b6000612c9282612e06565b9150612c9d83612e06565b9250827fffffffffffffffffffffffffffffffffffffffffffffffffffffffffffffffff03821115612cd257612cd1612efe565b5b828201905092915050565b6000612ce882612e06565b9150612cf383612e06565b925082612d0357612d02612f2d565b5b828204905092915050565b6000612d1982612e06565b9150612d2483612e06565b9250817fffffffffffffffffffffffffffffffffffffffffffffffffffffffffffffffff0483118215151615612d5d57612d5c612efe565b5b828202905092915050565b6000612d7382612e06565b9150612d7e83612e06565b925082821015612d9157612d90612efe565b5b828203905092915050565b6000612da782612de6565b9050919050565b60008115159050919050565b60007fffffffff0000000000000000000000000000000000000000000000000000000082169050919050565b600073ffffffffffffffffffffffffffffffffffffffff82169050919050565b6000819050919050565b82818337600083830152505050565b60005b83811015612e3d578082015181840152602081019050612e22565b83811115612e4c576000848401525b50505050565b60006002820490506001821680612e6a57607f821691505b60208210811415612e7e57612e7d612f5c565b5b50919050565b6000612e8f82612e06565b91507fffffffffffffffffffffffffffffffffffffffffffffffffffffffffffffffff821415612ec257612ec1612efe565b5b600182019050919050565b6000612ed882612e06565b9150612ee383612e06565b925082612ef357612ef2612f2d565b5b828206905092915050565b7f4e487b7100000000000000000000000000000000000000000000000000000000600052601160045260246000fd5b7f4e487b7100000000000000000000000000000000000000000000000000000000600052601260045260246000fd5b7f4e487b7100000000000000000000000000000000000000000000000000000000600052602260045260246000fd5b7f4e487b7100000000000000000000000000000000000000000000000000000000600052604160045260246000fd5b6000601f19601f8301169050919050565b612fd481612d9c565b8114612fdf57600080fd5b50565b612feb81612dae565b8114612ff657600080fd5b50565b61300281612dba565b811461300d57600080fd5b50565b61301981612e06565b811461302457600080fd5b5056fe4142434445464748494a4b4c4d4e4f505152535455565758595a6162636465666768696a6b6c6d6e6f707172737475767778797a303132333435363738392b2fa264697066735822122066c2ec172cc320dd907d34dd499ef25b60b1dd4fab4b0f276c8a60b09801825e64736f6c63430008000033",
  "devdoc": {
    "kind": "dev",
    "methods": {
      "approve(address,uint256)": {
        "details": "See {IERC721-approve}."
      },
      "balanceOf(address)": {
        "details": "See {IERC721-balanceOf}."
      },
      "getApproved(uint256)": {
        "details": "See {IERC721-getApproved}."
      },
      "isApprovedForAll(address,address)": {
        "details": "See {IERC721-isApprovedForAll}."
      },
      "name()": {
        "details": "See {IERC721Metadata-name}."
      },
      "ownerOf(uint256)": {
        "details": "See {IERC721-ownerOf}."
      },
      "safeTransferFrom(address,address,uint256)": {
        "details": "See {IERC721-safeTransferFrom}."
      },
      "safeTransferFrom(address,address,uint256,bytes)": {
        "details": "See {IERC721-safeTransferFrom}."
      },
      "setApprovalForAll(address,bool)": {
        "details": "See {IERC721-setApprovalForAll}."
      },
      "supportsInterface(bytes4)": {
        "details": "See {IERC165-supportsInterface}."
      },
      "symbol()": {
        "details": "See {IERC721Metadata-symbol}."
      },
      "tokenURI(uint256)": {
        "details": "See {IERC721Metadata-tokenURI}."
      },
      "transferFrom(address,address,uint256)": {
        "details": "See {IERC721-transferFrom}."
      }
    },
    "version": 1
  },
  "userdoc": {
    "kind": "user",
    "methods": {},
    "version": 1
  },
  "storageLayout": {
    "storage": [
      {
        "astId": 25,
        "contract": "contracts/svgnft.sol:SVGNFT",
        "label": "_name",
        "offset": 0,
        "slot": "0",
        "type": "t_string_storage"
      },
      {
        "astId": 27,
        "contract": "contracts/svgnft.sol:SVGNFT",
        "label": "_symbol",
        "offset": 0,
        "slot": "1",
        "type": "t_string_storage"
      },
      {
        "astId": 31,
        "contract": "contracts/svgnft.sol:SVGNFT",
        "label": "_owners",
        "offset": 0,
        "slot": "2",
        "type": "t_mapping(t_uint256,t_address)"
      },
      {
        "astId": 35,
        "contract": "contracts/svgnft.sol:SVGNFT",
        "label": "_balances",
        "offset": 0,
        "slot": "3",
        "type": "t_mapping(t_address,t_uint256)"
      },
      {
        "astId": 39,
        "contract": "contracts/svgnft.sol:SVGNFT",
        "label": "_tokenApprovals",
        "offset": 0,
        "slot": "4",
        "type": "t_mapping(t_uint256,t_address)"
      },
      {
        "astId": 45,
        "contract": "contracts/svgnft.sol:SVGNFT",
        "label": "_operatorApprovals",
        "offset": 0,
        "slot": "5",
        "type": "t_mapping(t_address,t_mapping(t_address,t_bool))"
      },
      {
        "astId": 977,
        "contract": "contracts/svgnft.sol:SVGNFT",
        "label": "_tokenURIs",
        "offset": 0,
        "slot": "6",
        "type": "t_mapping(t_uint256,t_string_storage)"
      },
      {
        "astId": 1800,
        "contract": "contracts/svgnft.sol:SVGNFT",
        "label": "tokenCounter",
        "offset": 0,
        "slot": "7",
        "type": "t_uint256"
      }
    ],
    "types": {
      "t_address": {
        "encoding": "inplace",
        "label": "address",
        "numberOfBytes": "20"
      },
      "t_bool": {
        "encoding": "inplace",
        "label": "bool",
        "numberOfBytes": "1"
      },
      "t_mapping(t_address,t_bool)": {
        "encoding": "mapping",
        "key": "t_address",
        "label": "mapping(address => bool)",
        "numberOfBytes": "32",
        "value": "t_bool"
      },
      "t_mapping(t_address,t_mapping(t_address,t_bool))": {
        "encoding": "mapping",
        "key": "t_address",
        "label": "mapping(address => mapping(address => bool))",
        "numberOfBytes": "32",
        "value": "t_mapping(t_address,t_bool)"
      },
      "t_mapping(t_address,t_uint256)": {
        "encoding": "mapping",
        "key": "t_address",
        "label": "mapping(address => uint256)",
        "numberOfBytes": "32",
        "value": "t_uint256"
      },
      "t_mapping(t_uint256,t_address)": {
        "encoding": "mapping",
        "key": "t_uint256",
        "label": "mapping(uint256 => address)",
        "numberOfBytes": "32",
        "value": "t_address"
      },
      "t_mapping(t_uint256,t_string_storage)": {
        "encoding": "mapping",
        "key": "t_uint256",
        "label": "mapping(uint256 => string)",
        "numberOfBytes": "32",
        "value": "t_string_storage"
      },
      "t_string_storage": {
        "encoding": "bytes",
        "label": "string",
        "numberOfBytes": "32"
      },
      "t_uint256": {
        "encoding": "inplace",
        "label": "uint256",
        "numberOfBytes": "32"
      }
    }
  }
}